{
  "contractName": "BlockchainForPeace",
  "abi": [
    {
      "constant": true,
      "inputs": [],
      "name": "charity",
      "outputs": [
        {
          "name": "",
          "type": "address"
        }
      ],
      "payable": false,
      "stateMutability": "view",
      "type": "function"
    },
    {
      "constant": true,
      "inputs": [
        {
          "name": "",
          "type": "address"
        }
      ],
      "name": "donors",
      "outputs": [
        {
          "name": "message",
          "type": "string"
        },
        {
          "name": "value",
          "type": "uint256"
        }
      ],
      "payable": false,
      "stateMutability": "view",
      "type": "function"
    },
    {
      "constant": true,
      "inputs": [],
      "name": "raised",
      "outputs": [
        {
          "name": "",
          "type": "uint256"
        }
      ],
      "payable": false,
      "stateMutability": "view",
      "type": "function"
    },
    {
      "inputs": [],
      "payable": false,
      "stateMutability": "nonpayable",
      "type": "constructor"
    },
    {
      "payable": true,
      "stateMutability": "payable",
      "type": "fallback"
    },
    {
      "anonymous": false,
      "inputs": [
        {
          "indexed": true,
          "name": "from",
          "type": "address"
        },
        {
          "indexed": false,
          "name": "amount",
          "type": "uint256"
        }
      ],
      "name": "Donate",
      "type": "event"
    },
    {
      "constant": false,
      "inputs": [
        {
          "name": "_message",
          "type": "string"
        }
      ],
      "name": "messageForPeace",
      "outputs": [],
      "payable": false,
      "stateMutability": "nonpayable",
      "type": "function"
    }
  ],
  "bytecode": "0x608060405234801561001057600080fd5b5073362f03a4a65162ba13a74b97cd8c921ed38757fb600160006101000a81548173ffffffffffffffffffffffffffffffffffffffff021916908373ffffffffffffffffffffffffffffffffffffffff160217905550610536806100756000396000f300608060405260043610610062576000357c0100000000000000000000000000000000000000000000000000000000900463ffffffff168063934aa02314610123578063a9b5ae831461017a578063ca0cdea8146101e3578063f0ea4bfc146102a6575b600160009054906101000a900473ffffffffffffffffffffffffffffffffffffffff1673ffffffffffffffffffffffffffffffffffffffff166108fc349081150290604051600060405180830381858888f193505050501580156100ca573d6000803e3d6000fd5b5034600260003373ffffffffffffffffffffffffffffffffffffffff1673ffffffffffffffffffffffffffffffffffffffff16815260200190815260200160002060010181905550346000808282540192505081905550005b34801561012f57600080fd5b506101386102d1565b604051808273ffffffffffffffffffffffffffffffffffffffff1673ffffffffffffffffffffffffffffffffffffffff16815260200191505060405180910390f35b34801561018657600080fd5b506101e1600480360381019080803590602001908201803590602001908080601f01602080910402602001604051908101604052809392919081815260200183838082843782019150505050505091929192905050506102f7565b005b3480156101ef57600080fd5b50610224600480360381019080803573ffffffffffffffffffffffffffffffffffffffff1690602001909291905050506103a3565b6040518080602001838152602001828103825284818151815260200191508051906020019080838360005b8381101561026a57808201518184015260208101905061024f565b50505050905090810190601f1680156102975780820380516001836020036101000a031916815260200191505b50935050505060405180910390f35b3480156102b257600080fd5b506102bb61045f565b6040518082815260200191505060405180910390f35b600160009054906101000a900473ffffffffffffffffffffffffffffffffffffffff1681565b6000600260003373ffffffffffffffffffffffffffffffffffffffff1673ffffffffffffffffffffffffffffffffffffffff168152602001908152602001600020600101541415151561034957600080fd5b80600260003373ffffffffffffffffffffffffffffffffffffffff1673ffffffffffffffffffffffffffffffffffffffff168152602001908152602001600020600001908051906020019061039f929190610465565b5050565b6002602052806000526040600020600091509050806000018054600181600116156101000203166002900480601f01602080910402602001604051908101604052809291908181526020018280546001816001161561010002031660029004801561044f5780601f106104245761010080835404028352916020019161044f565b820191906000526020600020905b81548152906001019060200180831161043257829003601f168201915b5050505050908060010154905082565b60005481565b828054600181600116156101000203166002900490600052602060002090601f016020900481019282601f106104a657805160ff19168380011785556104d4565b828001600101855582156104d4579182015b828111156104d35782518255916020019190600101906104b8565b5b5090506104e191906104e5565b5090565b61050791905b808211156105035760008160009055506001016104eb565b5090565b905600a165627a7a723058201d5f1451e84a72f9796aae1eff6e3eaf334f30ba2ed75d0a4a775b906076a57f0029",
  "source": "pragma solidity ^0.4.24;\n\ncontract BlockchainForPeace {\n    \n\n    // to see the total raised \n    uint public raised;\n    address public charity; \n    \n    //struct for the donation \n    struct Donation {\n        string message; \n        uint value; \n    }\n    //mapping an address to the donation struct \n    mapping (address => Donation) public donors;\n    \n    //constructor to initiate the address of the charity being donated to, temporary address for testing\n    constructor () public {\n        charity = 0x362f03a4a65162ba13a74b97cd8c921ed38757fb;\n    }\n   \n    // payable function which auto trasnfers money to charity address, collects the value and increases the total value counter.\n    function () payable public {\n        charity.transfer(msg.value);\n        donors[msg.sender].value = msg.value; \n        raised += msg.value;\n    }\n    // optional message to be sent with donation, peace message.\n    function messageForPeace(string _message) public {\n        require(donors[msg.sender].value != 0);\n        donors[msg.sender].message = _message;\n    }\n    \n    event Donate (address indexed from, uint amount);\n}",
  "sourcePath": "/Users/jesse/Desktop/blockX/BFP-contract/truffle box react/contracts/BlockchainForPeace.sol",
  "compiler": {
    "name": "solc",
    "version": "0.4.24+commit.e67f0147.Emscripten.clang"
  },
  "schemaVersion": "2.0.1",
  "updatedAt": "2018-08-13T15:22:29.541Z"
}